{
  "contractName": "ContactContract",
  "abi": [
    {
      "anonymous": false,
      "inputs": [
        {
          "indexed": true,
          "internalType": "string",
          "name": "name",
          "type": "string"
        },
        {
          "indexed": false,
          "internalType": "string",
          "name": "email",
          "type": "string"
        },
        {
          "indexed": false,
          "internalType": "string",
          "name": "phone",
          "type": "string"
        }
      ],
      "name": "ContactAdded",
      "type": "event"
    },
    {
      "inputs": [
        {
          "internalType": "address",
          "name": "",
          "type": "address"
        }
      ],
      "name": "contacts",
      "outputs": [
        {
          "internalType": "string",
          "name": "name",
          "type": "string"
        },
        {
          "internalType": "string",
          "name": "email",
          "type": "string"
        },
        {
          "internalType": "string",
          "name": "phone",
          "type": "string"
        }
      ],
      "stateMutability": "view",
      "type": "function"
    },
    {
      "inputs": [
        {
          "internalType": "string",
          "name": "_name",
          "type": "string"
        },
        {
          "internalType": "string",
          "name": "_email",
          "type": "string"
        },
        {
          "internalType": "string",
          "name": "_phone",
          "type": "string"
        }
      ],
      "name": "addContact",
      "outputs": [],
      "stateMutability": "nonpayable",
      "type": "function"
    },
    {
      "inputs": [],
      "name": "getContact",
      "outputs": [
        {
          "internalType": "string",
          "name": "",
          "type": "string"
        },
        {
          "internalType": "string",
          "name": "",
          "type": "string"
        },
        {
          "internalType": "string",
          "name": "",
          "type": "string"
        }
      ],
      "stateMutability": "view",
      "type": "function"
    }
  ],
  "bytecode": "0x608060405234801561000f575f80fd5b50610c358061001d5f395ff3fe608060405234801561000f575f80fd5b506004361061003f575f3560e01c80631db10fba146100435780632c1352cf14610063578063d341a40214610095575b5f80fd5b61004b6100b1565b60405161005a939291906105f8565b60405180910390f35b61007d600480360381019061007891906106ad565b6102c9565b60405161008c939291906105f8565b60405180910390f35b6100af60048036038101906100aa9190610804565b610480565b005b60608060605f805f3373ffffffffffffffffffffffffffffffffffffffff1673ffffffffffffffffffffffffffffffffffffffff1681526020019081526020015f206040518060600160405290815f8201805461010d906108d5565b80601f0160208091040260200160405190810160405280929190818152602001828054610139906108d5565b80156101845780601f1061015b57610100808354040283529160200191610184565b820191905f5260205f20905b81548152906001019060200180831161016757829003601f168201915b5050505050815260200160018201805461019d906108d5565b80601f01602080910402602001604051908101604052809291908181526020018280546101c9906108d5565b80156102145780601f106101eb57610100808354040283529160200191610214565b820191905f5260205f20905b8154815290600101906020018083116101f757829003601f168201915b5050505050815260200160028201805461022d906108d5565b80601f0160208091040260200160405190810160405280929190818152602001828054610259906108d5565b80156102a45780601f1061027b576101008083540402835291602001916102a4565b820191905f5260205f20905b81548152906001019060200180831161028757829003601f168201915b5050505050815250509050805f01518160200151826040015193509350935050909192565b5f602052805f5260405f205f91509050805f0180546102e7906108d5565b80601f0160208091040260200160405190810160405280929190818152602001828054610313906108d5565b801561035e5780601f106103355761010080835404028352916020019161035e565b820191905f5260205f20905b81548152906001019060200180831161034157829003601f168201915b505050505090806001018054610373906108d5565b80601f016020809104026020016040519081016040528092919081815260200182805461039f906108d5565b80156103ea5780601f106103c1576101008083540402835291602001916103ea565b820191905f5260205f20905b8154815290600101906020018083116103cd57829003601f168201915b5050505050908060020180546103ff906108d5565b80601f016020809104026020016040519081016040528092919081815260200182805461042b906108d5565b80156104765780601f1061044d57610100808354040283529160200191610476565b820191905f5260205f20905b81548152906001019060200180831161045957829003601f168201915b5050505050905083565b6040518060600160405280848152602001838152602001828152505f803373ffffffffffffffffffffffffffffffffffffffff1673ffffffffffffffffffffffffffffffffffffffff1681526020019081526020015f205f820151815f0190816104ea9190610aab565b5060208201518160010190816105009190610aab565b5060408201518160020190816105169190610aab565b50905050826040516105289190610bb4565b60405180910390207fa963efc89610baef5c0a1f610e9165373a46515a9dc99538431d0fba50702f158383604051610561929190610bca565b60405180910390a2505050565b5f81519050919050565b5f82825260208201905092915050565b5f5b838110156105a557808201518184015260208101905061058a565b5f8484015250505050565b5f601f19601f8301169050919050565b5f6105ca8261056e565b6105d48185610578565b93506105e4818560208601610588565b6105ed816105b0565b840191505092915050565b5f6060820190508181035f83015261061081866105c0565b9050818103602083015261062481856105c0565b9050818103604083015261063881846105c0565b9050949350505050565b5f604051905090565b5f80fd5b5f80fd5b5f73ffffffffffffffffffffffffffffffffffffffff82169050919050565b5f61067c82610653565b9050919050565b61068c81610672565b8114610696575f80fd5b50565b5f813590506106a781610683565b92915050565b5f602082840312156106c2576106c161064b565b5b5f6106cf84828501610699565b91505092915050565b5f80fd5b5f80fd5b7f4e487b71000000000000000000000000000000000000000000000000000000005f52604160045260245ffd5b610716826105b0565b810181811067ffffffffffffffff82111715610735576107346106e0565b5b80604052505050565b5f610747610642565b9050610753828261070d565b919050565b5f67ffffffffffffffff821115610772576107716106e0565b5b61077b826105b0565b9050602081019050919050565b828183375f83830152505050565b5f6107a86107a384610758565b61073e565b9050828152602081018484840111156107c4576107c36106dc565b5b6107cf848285610788565b509392505050565b5f82601f8301126107eb576107ea6106d8565b5b81356107fb848260208601610796565b91505092915050565b5f805f6060848603121561081b5761081a61064b565b5b5f84013567ffffffffffffffff8111156108385761083761064f565b5b610844868287016107d7565b935050602084013567ffffffffffffffff8111156108655761086461064f565b5b610871868287016107d7565b925050604084013567ffffffffffffffff8111156108925761089161064f565b5b61089e868287016107d7565b9150509250925092565b7f4e487b71000000000000000000000000000000000000000000000000000000005f52602260045260245ffd5b5f60028204905060018216806108ec57607f821691505b6020821081036108ff576108fe6108a8565b5b50919050565b5f819050815f5260205f209050919050565b5f6020601f8301049050919050565b5f82821b905092915050565b5f600883026109617fffffffffffffffffffffffffffffffffffffffffffffffffffffffffffffffff82610926565b61096b8683610926565b95508019841693508086168417925050509392505050565b5f819050919050565b5f819050919050565b5f6109af6109aa6109a584610983565b61098c565b610983565b9050919050565b5f819050919050565b6109c883610995565b6109dc6109d4826109b6565b848454610932565b825550505050565b5f90565b6109f06109e4565b6109fb8184846109bf565b505050565b5b81811015610a1e57610a135f826109e8565b600181019050610a01565b5050565b601f821115610a6357610a3481610905565b610a3d84610917565b81016020851015610a4c578190505b610a60610a5885610917565b830182610a00565b50505b505050565b5f82821c905092915050565b5f610a835f1984600802610a68565b1980831691505092915050565b5f610a9b8383610a74565b9150826002028217905092915050565b610ab48261056e565b67ffffffffffffffff811115610acd57610acc6106e0565b5b610ad782546108d5565b610ae2828285610a22565b5f60209050601f831160018114610b13575f8415610b01578287015190505b610b0b8582610a90565b865550610b72565b601f198416610b2186610905565b5f5b82811015610b4857848901518255600182019150602085019450602081019050610b23565b86831015610b655784890151610b61601f891682610a74565b8355505b6001600288020188555050505b505050505050565b5f81905092915050565b5f610b8e8261056e565b610b988185610b7a565b9350610ba8818560208601610588565b80840191505092915050565b5f610bbf8284610b84565b915081905092915050565b5f6040820190508181035f830152610be281856105c0565b90508181036020830152610bf681846105c0565b9050939250505056fea26469706673582212207c187c879cc2f9a19af65b8451c05929e16d4b1582186c1b935f18ed50d88a0f64736f6c63430008150033",
  "immutableReferences": {},
  "source": "// SPDX-License-Identifier: MIT\r\npragma solidity ^0.8.0;\r\n\r\ncontract ContactContract {\r\n    struct Contact {\r\n        string name;\r\n        string email;\r\n        string phone;\r\n    }\r\n\r\n    event ContactAdded(string indexed name, string email, string phone);\r\n\r\n    mapping(address => Contact) public contacts;\r\n\r\n    function addContact(string memory _name, string memory _email, string memory _phone) public {\r\n        contacts[msg.sender] = Contact(_name, _email, _phone);\r\n        emit ContactAdded(_name, _email, _phone);\r\n    }\r\n\r\n    function getContact() public view returns (string memory, string memory, string memory) {\r\n        Contact memory person = contacts[msg.sender];\r\n        return (person.name, person.email, person.phone);\r\n    }\r\n}\r\n",
  "sourcePath": "C:\\Users\\anura\\OneDrive\\Desktop\\MetaVentures\\contracts\\Contact.sol",
  "compiler": {
    "name": "solc",
    "version": "0.8.21+commit.d9974bed.Emscripten.clang"
  },
  "schemaVersion": "3.4.16",
  "updatedAt": "2023-11-07T15:06:54.648Z",
  "devdoc": {
    "kind": "dev",
    "methods": {},
    "version": 1
  },
  "userdoc": {
    "kind": "user",
    "methods": {},
    "version": 1
  }
}