{
  "contractName": "Contact",
  "abi": [
    {
      "anonymous": false,
      "inputs": [
        {
          "indexed": true,
          "internalType": "address",
          "name": "user",
          "type": "address"
        },
        {
          "indexed": false,
          "internalType": "string",
          "name": "name",
          "type": "string"
        },
        {
          "indexed": false,
          "internalType": "string",
          "name": "email",
          "type": "string"
        }
      ],
      "name": "ContactUpdated",
      "type": "event"
    },
    {
      "inputs": [
        {
          "internalType": "address",
          "name": "",
          "type": "address"
        }
      ],
      "name": "contactEmails",
      "outputs": [
        {
          "internalType": "string",
          "name": "",
          "type": "string"
        }
      ],
      "stateMutability": "view",
      "type": "function",
      "constant": true
    },
    {
      "inputs": [
        {
          "internalType": "address",
          "name": "",
          "type": "address"
        }
      ],
      "name": "contactNames",
      "outputs": [
        {
          "internalType": "string",
          "name": "",
          "type": "string"
        }
      ],
      "stateMutability": "view",
      "type": "function",
      "constant": true
    },
    {
      "inputs": [
        {
          "internalType": "string",
          "name": "_name",
          "type": "string"
        },
        {
          "internalType": "string",
          "name": "_email",
          "type": "string"
        }
      ],
      "name": "updateContact",
      "outputs": [],
      "stateMutability": "nonpayable",
      "type": "function"
    }
  ],
  "bytecode": "0x608060405234801561000f575f80fd5b506108fc8061001d5f395ff3fe608060405234801561000f575f80fd5b506004361061003f575f3560e01c80630d60fafd14610043578063358022121461005f5780638cf072b71461008f575b5f80fd5b61005d6004803603810190610058919061042a565b6100bf565b005b610079600480360381019061007491906104fa565b6101a8565b604051610086919061059f565b60405180910390f35b6100a960048036038101906100a491906104fa565b610242565b6040516100b6919061059f565b60405180910390f35b815f803373ffffffffffffffffffffffffffffffffffffffff1673ffffffffffffffffffffffffffffffffffffffff1681526020019081526020015f20908161010891906107c2565b508060015f3373ffffffffffffffffffffffffffffffffffffffff1673ffffffffffffffffffffffffffffffffffffffff1681526020019081526020015f20908161015391906107c2565b503373ffffffffffffffffffffffffffffffffffffffff167facb880038bc18fb9c56bc6d86a4396be22d16572f366cde9aa8b8427407f4f04838360405161019c929190610891565b60405180910390a25050565b5f602052805f5260405f205f9150905080546101c3906105ec565b80601f01602080910402602001604051908101604052809291908181526020018280546101ef906105ec565b801561023a5780601f106102115761010080835404028352916020019161023a565b820191905f5260205f20905b81548152906001019060200180831161021d57829003601f168201915b505050505081565b6001602052805f5260405f205f91509050805461025e906105ec565b80601f016020809104026020016040519081016040528092919081815260200182805461028a906105ec565b80156102d55780601f106102ac576101008083540402835291602001916102d5565b820191905f5260205f20905b8154815290600101906020018083116102b857829003601f168201915b505050505081565b5f604051905090565b5f80fd5b5f80fd5b5f80fd5b5f80fd5b5f601f19601f8301169050919050565b7f4e487b71000000000000000000000000000000000000000000000000000000005f52604160045260245ffd5b61033c826102f6565b810181811067ffffffffffffffff8211171561035b5761035a610306565b5b80604052505050565b5f61036d6102dd565b90506103798282610333565b919050565b5f67ffffffffffffffff82111561039857610397610306565b5b6103a1826102f6565b9050602081019050919050565b828183375f83830152505050565b5f6103ce6103c98461037e565b610364565b9050828152602081018484840111156103ea576103e96102f2565b5b6103f58482856103ae565b509392505050565b5f82601f830112610411576104106102ee565b5b81356104218482602086016103bc565b91505092915050565b5f80604083850312156104405761043f6102e6565b5b5f83013567ffffffffffffffff81111561045d5761045c6102ea565b5b610469858286016103fd565b925050602083013567ffffffffffffffff81111561048a576104896102ea565b5b610496858286016103fd565b9150509250929050565b5f73ffffffffffffffffffffffffffffffffffffffff82169050919050565b5f6104c9826104a0565b9050919050565b6104d9816104bf565b81146104e3575f80fd5b50565b5f813590506104f4816104d0565b92915050565b5f6020828403121561050f5761050e6102e6565b5b5f61051c848285016104e6565b91505092915050565b5f81519050919050565b5f82825260208201905092915050565b5f5b8381101561055c578082015181840152602081019050610541565b5f8484015250505050565b5f61057182610525565b61057b818561052f565b935061058b81856020860161053f565b610594816102f6565b840191505092915050565b5f6020820190508181035f8301526105b78184610567565b905092915050565b7f4e487b71000000000000000000000000000000000000000000000000000000005f52602260045260245ffd5b5f600282049050600182168061060357607f821691505b602082108103610616576106156105bf565b5b50919050565b5f819050815f5260205f209050919050565b5f6020601f8301049050919050565b5f82821b905092915050565b5f600883026106787fffffffffffffffffffffffffffffffffffffffffffffffffffffffffffffffff8261063d565b610682868361063d565b95508019841693508086168417925050509392505050565b5f819050919050565b5f819050919050565b5f6106c66106c16106bc8461069a565b6106a3565b61069a565b9050919050565b5f819050919050565b6106df836106ac565b6106f36106eb826106cd565b848454610649565b825550505050565b5f90565b6107076106fb565b6107128184846106d6565b505050565b5b818110156107355761072a5f826106ff565b600181019050610718565b5050565b601f82111561077a5761074b8161061c565b6107548461062e565b81016020851015610763578190505b61077761076f8561062e565b830182610717565b50505b505050565b5f82821c905092915050565b5f61079a5f198460080261077f565b1980831691505092915050565b5f6107b2838361078b565b9150826002028217905092915050565b6107cb82610525565b67ffffffffffffffff8111156107e4576107e3610306565b5b6107ee82546105ec565b6107f9828285610739565b5f60209050601f83116001811461082a575f8415610818578287015190505b61082285826107a7565b865550610889565b601f1984166108388661061c565b5f5b8281101561085f5784890151825560018201915060208501945060208101905061083a565b8683101561087c5784890151610878601f89168261078b565b8355505b6001600288020188555050505b505050505050565b5f6040820190508181035f8301526108a98185610567565b905081810360208301526108bd8184610567565b9050939250505056fea26469706673582212208e0ff54c58153b40c4d2a144a01fad6ca0ce3012169208c55bd8c69cdbeaa63664736f6c63430008150033",
  "immutableReferences": {},
  "source": "// contracts/Contact.sol\r\n//SPDX-License-Identifier: MIT\r\n\r\npragma solidity ^0.8.0;\r\n\r\ncontract Contact {\r\n    event ContactUpdated(address indexed user, string name, string email);\r\n\r\n    mapping(address => string) public contactNames;\r\n    mapping(address => string) public contactEmails;\r\n\r\n    function updateContact(string memory _name, string memory _email) public {\r\n        contactNames[msg.sender] = _name;\r\n        contactEmails[msg.sender] = _email;\r\n\r\n        emit ContactUpdated(msg.sender, _name, _email);\r\n    }\r\n}\r\n",
  "sourcePath": "C:\\Users\\anura\\OneDrive\\Desktop\\MetaVentures\\contracts\\Contact.sol",
  "compiler": {
    "name": "solc",
    "version": "0.8.21+commit.d9974bed.Emscripten.clang"
  },
  "schemaVersion": "3.4.16",
  "updatedAt": "2023-11-08T07:40:07.185Z",
  "networkType": "ethereum",
  "devdoc": {
    "kind": "dev",
    "methods": {},
    "version": 1
  },
  "userdoc": {
    "kind": "user",
    "methods": {},
    "version": 1
  }
}